:020000040000FA
:100000000C9462000C948A000C948A000C948A0070
:100010000C948A000C948A000C948A000C948A0038
:100020000C948A000C948A000C948A000C948A0028
:100030000C948A000C948A000C948A000C948A0018
:100040000C942B080C948A000C94F9070C94D30799
:100050000C948A000C948A000C948A000C948A00F8
:100060000C9475080C948A000000000024002700FE
:100070002A0000000000250028002B0000000000DE
:1000800023002600290004040404040404040202DA
:100090000202020203030303030301020408102007
:1000A0004080010204081020010204081020000012
:1000B0000008000201000003040700000000000027
:1000C0000000940911241FBECFEFD8E0DEBFCDBFE2
:1000D00011E0A0E0B1E0E0EEFCE102C005900D927D
:1000E000A432B107D9F722E0A4E2B1E001C01D9229
:1000F000AB3CB207E1F710E0C2E6D0E004C02197C4
:10010000FE010E94680EC136D107C9F70E94E609B8
:100110000C946E0E0C94000008950895AF92BF9257
:10012000CF92DF92EF92FF920F931F93CF93DF93C3
:100130006C017B018B01040F151FEB015E01AE18F2
:10014000BF08C017D10759F06991D601ED91FC9114
:100150000190F081E02DC6010995892B79F7C50141
:10016000DF91CF911F910F91FF90EF90DF90CF9093
:10017000BF90AF900895FC01538D448D252F30E042
:10018000842F90E0821B930B541710F0CF960895A4
:1001900001970895FC01918D828D981761F0A28DD1
:1001A000AE0FBF2FB11D5D968C91928D9F5F9F7397
:1001B000928F90E008958FEF9FEF0895FC01918D4D
:1001C000828D981731F0828DE80FF11D858D90E0BA
:1001D00008958FEF9FEF0895FC01918D228D892F57
:1001E00090E0805C9F4F821B91098F73992708953F
:1001F00080E192E00E94EC0021E0892B09F420E0EC
:10020000822F089580E090E0892B29F00E94F80069
:1002100081110C9400000895FC01A48DA80FB92F42
:10022000B11DA35ABF4F2C91848D90E001968F731E
:100230009927848FA689B7892C93A089B1898C913D
:10024000837080648C93938D848D981306C002888C
:10025000F389E02D80818F7D80830895EF92FF9256
:100260000F931F93CF93DF93EC0181E0888F9B8DD9
:100270008C8D98131AC0E889F989808185FF15C093
:100280009FB7F894EE89FF896083E889F9898081B6
:100290008370806480839FBF81E090E0DF91CF9185
:1002A0001F910F91FF90EF900895F62E0B8D10E0A7
:1002B0000F5F1F4F0F731127E02E8C8D8E110CC016
:1002C0000FB607FCFACFE889F989808185FFF5CF61
:1002D000CE010E940C01F1CFEB8DEC0FFD2FF11D33
:1002E000E35AFF4FF0829FB7F8940B8FEA89FB899E
:1002F00080818062CFCF682F80E192E00C942E0144
:10030000CF93DF93EC01888D8823B9F0AA89BB894C
:10031000E889F9898C9185FD03C0808186FD0DC037
:100320000FB607FCF7CF8C9185FFF2CF808185FF58
:10033000EDCFCE010E940C01E9CFDF91CF9108955E
:10034000833081F028F4813099F08230A9F008954B
:100350008730A9F08830C9F08430B1F480918000F2
:100360008F7D03C0809180008F77809380000895F7
:1003700084B58F7784BD089584B58F7DFBCF809140
:10038000B0008F778093B00008958091B0008F7D8A
:10039000F9CFCF93DF932091C10230E0F901E2550C
:1003A000FF4F8491F901E656FF4FD491F901EA57C6
:1003B000FF4FC49130E020E0CC2399F081110E94DE
:1003C000A001EC2FF0E0EE0FFF1FE458FF4FA591C6
:1003D000B491EC91ED2391E080E009F490E0292FB5
:1003E000382F81E09091C302911180E091E029279C
:1003F00021708227DF91CF9108951F93CF93DF93D0
:10040000282F30E0F901E255FF4F8491F901E656BB
:10041000FF4FD491F901EA57FF4FC491CC23A9F0C3
:10042000162F81110E94A001EC2FF0E0EE0FFF1FAC
:10043000EE58FF4FA591B4918FB7F894EC9111113C
:1004400008C0D095DE23DC938FBFDF91CF911F9141
:100450000895DE2BF8CFCF93DF9390E0FC01E656B2
:10046000FF4F24918A579F4FFC0184918823C9F044
:1004700090E0880F991FFC01E859FF4FA591B491B6
:10048000FC01EE58FF4FC591D49161110DC09FB78B
:10049000F8948C91209582238C938881282328833B
:1004A0009FBFDF91CF910895623051F49FB7F894C8
:1004B0003C91822F809583238C93E8812E2BEFCF64
:1004C0008FB7F894EC912E2B2C938FBFEACF8091AD
:1004D000C1029091C20262E0913009F060E00E9496
:1004E0002B028FE090E00197F1F708953FB7F89461
:1004F00080916A0190916B01A0916C01B0916D01A6
:1005000026B5A89B05C02F3F19F00196A11DB11D6E
:100510003FBFBA2FA92F982F8827BC01CD01620FAA
:10052000711D811D911D42E0660F771F881F991F65
:100530004A95D1F708958F929F92AF92BF92CF9232
:10054000DF92EF92FF924B015C010E9476026B01F9
:100550007C010E9476026C197D098E099F09683E14
:10056000734081059105A8F321E0821A9108A10842
:10057000B10888EEC80E83E0D81EE11CF11C81147E
:100580009104A104B10429F7FF90EF90DF90CF9080
:10059000BF90AF909F908F9008958091CA02811173
:1005A00005C081E08093CA020E9467020E94C901CF
:1005B0008111FCCF6AE070E080E090E00E949B0235
:1005C0000E94C9018111F2CF08958091CA02811160
:1005D00005C081E08093CA020E9467020E94C9019F
:1005E0008823E1F36AE070E080E090E00E949B02E3
:1005F0000E94C901882391F30895DC01ED91FC91DB
:100600000190F081E02D099461E08AE00E942B02C4
:1006100061E089E00E942B0261E088E00E942B02E9
:1006200061E087E00E942B0280EA8093800081E1F4
:100630008093810080E991E0909387008093860009
:100640000895CF93DF93EC0180916801811105C07B
:1006500081E0809368010E940403D0938900C093D5
:10066000880060E087E0DF91CF910C94FD01CF938B
:10067000DF93EC0180916801811105C081E08093D6
:1006800068010E940403D0938B00C0938A0060E04D
:1006900088E0DF91CF910C94FD0120914501260F58
:1006A0003327331F21323105ECF420910A02FC017B
:1006B00090E080E0243069F082E00895A091450147
:1006C0002191AC014B5D5E4FA40FB52FB11D2C9352
:1006D0000196861798F380914501680F6093450154
:1006E00080E0089581E0089510920A0281E08093ED
:1006F000E9011092E40161E082E10E94FD0161E004
:1007000083E10E94FD01E9EBF0E080818E7F808330
:1007100080818D7F808388E48093B80085E4809316
:10072000BC000895CF93DF9391E090932401882338
:10073000B9F0C091B800D091BA008091BC008A7B1A
:100740008093BC0060E082E10E94FD0160E083E1F3
:100750000E94FD010E947403D093BA00C093B800B8
:10076000DF91CF910895CF92DF92EF92FF920F9396
:100770001F93CF93DF93D82FC62F613208F098C014
:100780000E9476026B017C0180910A0281116BC08C
:1007900081E080930A028093E9019FEF9093E80142
:1007A0001092E7019C0F9093E6018093E501809100
:1007B000E501DD0FD82BD093E5018091E401813074
:1007C00009F078C01092E4010E9476026B017C016E
:1007D0008091E5018093BB0080910C0290910D0205
:1007E000A0910E02B0910F02892B8A2B8B2BA1F0C6
:1007F0000E94760200910C0210910D0220910E02CF
:1008000030910F026C197D098E099F090617170791
:100810002807390708F448C08091BC0083FDD8CF71
:1008200085EC8093BC000E9476026B017C01809174
:100830000A02813009F440C08091E7018C1710F45E
:10084000C091E701E4ECF1E0AAEEB1E080E08C13A6
:1008500055C08C2FDF91CF911F910F91FF90EF909A
:10086000DF90CF90089580910C0290910D02A0919D
:100870000E02B0910F02892B8A2B8B2B09F484CFA7
:100880000E94760200910C0210910D0220910E023E
:1008900030910F026C197D098E099F090617170701
:1008A0002807390708F070CF80910B020E9492034D
:1008B000C0E0CFCF85EEB5CF80910C0290910D02B4
:1008C000A0910E02B0910F02892B8A2B8B2B09F479
:1008D000AECF0E94760200910C0210910D02209181
:1008E0000E0230910F026C197D098E099F090617BF
:1008F00017072807390708F09ACFD6CF91919D9313
:100900008F5FA5CF8F929F92AF92BF92CF92DF92CF
:10091000EF92FF920F931F93CF93DF93D091C30178
:10092000D13208F0D7C0182FC091C2010E947602C0
:100930006B017C0180910A0281116BC082E080937F
:100940000A021093E9018FEF8093E8011092E7010A
:10095000D093E601A2EAB1E0E4ECF1E080E0D81344
:1009600091C01092E5018091E501CC0FC82BC09396
:10097000E5018091E401813009F088C01092E40122
:100980000E9476026B017C018091E5018093BB009F
:1009900080910C0290910D02A0910E02B0910F0275
:1009A000892B8A2B8B2BA1F00E94760200910C02DE
:1009B00010910D0220910E0230910F026C197D09E9
:1009C0008E099F09061717072807390708F442C040
:1009D0008091BC0083FDD8CF85EC8093BC000E9441
:1009E00076026B017C0180910A02823009F450C0CA
:1009F0008091E8018F3F09F46FC08091E801803257
:100A000009F46CC08091E801803309F469C084E086
:100A100026C080910C0290910D02A0910E02B0911F
:100A20000F02892B8A2B8B2B09F484CF0E9476022C
:100A300080900C0290900D02A0900E02B0900F02D8
:100A40006C197D098E099F0986169706A806B906B6
:100A500008F070CF80910B020E94920385E0109203
:100A6000A1011092C3011092A001DF91CF911F91BB
:100A70000F91FF90EF90DF90CF90BF90AF909F903D
:100A80008F9008959D9191938F5F69CF85EEA5CF4B
:100A900080910C0290910D02A0910E02B0910F0274
:100AA000892B8A2B8B2B09F49ECF0E947602009112
:100AB0000C0210910D0220910E0230910F026C1960
:100AC0007D098E099F09061717072807390708F0BF
:100AD0008ACFC0CF81E0C3CF80E0C1CF82E0BFCF5B
:100AE00083E0BDCF1F93CF93DF93142FC9EBD2E0E8
:100AF000288139819A8141E04093A0019093C201FD
:100B00001092A1011092C3018068682F70E0C901A2
:100B10000E94FD0288819981DC01ED91FC91019098
:100B2000F081E02D612F099581E0DF91CF911F9138
:100B30000C9482040895E0919F0180919E01E81732
:100B400030F4F0E0E651FE4F808190E008958FEFA1
:100B50009FEF089590919F0180919E012FEF3FEFAD
:100B6000981748F4E92FF0E0E651FE4F208130E07D
:100B70009F5F90939F01C901089580919E0190917C
:100B80009F01891B990B0895CF92DF92EF92FF92FC
:100B90000F931F93CF93DF937C01CB018A012091A8
:100BA000A001222389F0EB016B01C40ED51ECC15E8
:100BB000DD0569F06991D701ED91FC910190F0811B
:100BC000E02DC7010995F3CF642F0E944D03C801A2
:100BD000DF91CF911F910F91FF90EF90DF90CF9019
:100BE0000895CF93DF931F92CDB7DEB7698320912D
:100BF000A0012223F9F02091C301203258F021E016
:100C000030E0FC013383228390E080E00F90DF919D
:100C1000CF9108958091A101E82FF0E0EE55FE4FAD
:100C2000998190838F5F8093A1018093C30181E0BC
:100C300090E0ECCF61E0CE0101960E944D03F7CF2A
:100C400090E080E008950F931F93CF93DF93C9EB5B
:100C5000D2E0288139819A8141E04093A0019093AC
:100C6000C2011092A1011092C3018068682F70E048
:100C7000C9010E94FD0281E00E94820462E08A8133
:100C80000E94B30310929F0180939E0188819981F5
:100C9000DC01ED91FC910284F385E02D09958C0136
:100CA00088819981DC01ED91FC910284F385E02D2E
:100CB000099520E0382FC801822B932BDF91CF912B
:100CC0001F910F910895CF93DF9310929F0110927F
:100CD0009E011092A1011092C3010E9474038CE83E
:100CE00090E090939D0180939C018DE890E090931B
:100CF0009B0180939A018091B9029091BA02209150
:100D0000BB0231E03093A0012093C20162E970E0A0
:100D10000E94FD0281E00E94820461E08091BB029A
:100D20000E94B30310929F0180939E018091B902AB
:100D30009091BA02DC01ED91FC910284F385E02DE3
:100D40000995843419F0803109F079C081E08093ED
:100D5000BC02C091BF02D091C002AE0170E060E061
:100D60000E947205D093C002C093BF02C091BD0221
:100D7000D091BE028091BC0281110BC089E28093A8
:100D8000BB028DEA92E09093BA028093B9020E946E
:100D90006306AE0170E060E08FE00E947205D093C0
:100DA000BE02C093BD0241E050E060E070E080E030
:100DB0000E94720563E070E080E090E00E949B0278
:100DC00043E050E060E070E080E00E9472058091B6
:100DD000BF029091C002853D910511F138F4009752
:100DE00049F1803C910509F181E02AC0863F9105D7
:100DF00091F08F3F910541F08B3E9105A9F762E399
:100E000070E080E090E004C063E070E080E090E09B
:100E10000E949B02E9CF68E170E080E090E0F8CFAB
:100E200065E670E080E090E0F3CF6AE970E080E092
:100E300090E0EECF6CEB72E080E090E0E9CF80E0F4
:100E4000DF91CF910895CF92DF92EF92FF920F93AF
:100E50001F93CF93DF937C018B01EA01690180919D
:100E6000BC0281110BC089E28093BB028DEA92E043
:100E70009093BA028093B9020E94630684E10E94B3
:100E80002306F6019183808386E10E942306F70101
:100E90009183808388E10E942306F80191838083F7
:100EA0008AE10E942306998388838091BF029091F2
:100EB000C002853D910581F170F40097B9F1803C45
:100EC000910579F1DF91CF911F910F91FF90EF90F4
:100ED000DF90CF900895863F9105C9F08F3F91052F
:100EE00041F08B3E910571F762E370E080E090E0A5
:100EF00004C063E070E080E090E0DF91CF911F914B
:100F00000F91FF90EF90DF90CF900C949B0268E1DF
:100F100070E080E090E0F1CF65E670E080E090E086
:100F2000ECCF6AE970E080E090E0E7CF6CEB72E034
:100F300080E090E0E2CF85ED8093BC0080910C02D0
:100F400090910D02A0910E02B0910F020796A11D83
:100F5000B11D23E0B695A795979587952A95D1F76A
:100F60002091BC0024FD03C010920A020895409114
:100F70000C0250910D0260910E0270910F02452BF0
:100F8000462B472B69F30097A105B10541F025E3F6
:100F90002A95F1F700000197A109B109E1CF8091ED
:100FA0000B020C9492031F920F920FB60F92112412
:100FB0002F933F934F935F936F937F938F939F9361
:100FC000AF93BF93EF93FF9380E192E00E940C01F7
:100FD000FF91EF91BF91AF919F918F917F916F9111
:100FE0005F914F913F912F910F900FBE0F901F90E7
:100FF00018951F920F920FB60F9211242F938F9373
:101000009F93EF93FF93E0912002F0912102808162
:10101000E0912602F091270282FD1BC09081809111
:1010200029028F5F8F7320912A02821741F0E0918D
:101030002902F0E0E05FFD4F958F80932902FF9138
:10104000EF919F918F912F910F900FBE0F901F9056
:1010500018958081F4CF1F920F920FB60F92112432
:101060002F933F938F939F93AF93BF9380917A0178
:1010700090917B01A0917C01B0917D01309169013B
:1010800023E0230F2D3758F50196A11DB11D2093A4
:10109000690180937A0190937B01A0937C01B093C6
:1010A0007D0180916A0190916B01A0916C01B091DA
:1010B0006D010196A11DB11D80936A0190936B0192
:1010C000A0936C01B0936D01BF91AF919F918F91EF
:1010D0003F912F910F900FBE0F901F90189526E80B
:1010E000230F0296A11DB11DD2CF1F920F920FB6F2
:1010F0000F9211242F933F934F935F936F937F939E
:101100008F939F93AF93BF93EF93FF938091B90019
:10111000887F803609F44AC0F0F5883209F4A7C008
:1011200018F5803109F49BC0B8F4882309F4F9C09C
:10113000883009F494C0FF91EF91BF91AF919F91D6
:101140008F917F916F915F914F913F912F910F9070
:101150000FBE0F901F901895883109F488C0803217
:1011600051F78093E80114C0803409F49DC040F425
:101170008033B9F38833F9F68093E80185ECB0C089
:10118000803509F485C0883509F496C0883499F60D
:101190000E949B07D0CF883909F48CC038F5883776
:1011A00029F050F4883611F0803729F683E08093D7
:1011B0000A021092670157C0883809F47BC0803951
:1011C00019F0803809F0B7CF80916701803208F0BC
:1011D00071C0E091670181E08E0F8093670180917B
:1011E000BB00F0E0E95BFE4F80833DC0803B39F0FF
:1011F000E0F4803A09F479C0883A09F09CCF84E0A1
:1012000080930A021092460110924501E0919C01E0
:10121000F0919D0109958091450181110FC081E0F8
:10122000809345011092250109C0803C09F4A6CFA6
:10123000883C09F4A3CF883B09F07DCFE0914601BB
:1012400081E08E0F80934601F0E0EB5DFE4F8081E0
:101250008093BB00909146018091450129C0809107
:10126000E5018093BB0085EC8093BC0064CF909136
:10127000E7018091E601981758F5E091E70181E0D8
:101280008E0F8093E701F0E0EC53FE4F8081E9CFB1
:10129000E091E70181E08E0F8093E7018091BB0030
:1012A000F0E0EC53FE4F80839091E7018091E601DE
:1012B0009817C8F285E8D8CFE091E70181E08E0F5A
:1012C0008093E7018091BB00F0E0EC53FE4F8083F8
:1012D0008091E90181115CCF81E08093E40184EA8F
:1012E0008093BC0010920A0226CF85EC8093BC004C
:1012F00010920A0280916701803230F4E091670118
:10130000F0E0E95BFE4F10826091670170E0E091D0
:101310009A01F0919B0187E491E009951092670191
:101320000ACF1092E80134CFE0E1F2E0138212829A
:1013300088EE93E0A0E0B0E084839583A683B78332
:1013400024E031E03183208325EC30E035872487A9
:1013500024EC30E03787268720EC30E0318B208B7F
:1013600021EC30E0338B228B22EC30E0358B248B68
:1013700026EC30E0378B268B118E128E138E148E56
:10138000EDEAF2E01382128284839583A683B78309
:1013900086E191E091838083E1ECF2E08CE0808350
:1013A00081E08183828313821482168215821086E3
:1013B00017821186E9EBF2E013828FEF90E09783BA
:1013C000868383E090E0958384830895CF93DF93B1
:1013D000CDB7DEB728970FB6F894DEBF0FBECDBFEE
:1013E000789484B5826084BD84B5816084BD85B500
:1013F000826085BD85B5816085BD80916E0081600C
:1014000080936E00109281008091810082608093B1
:1014100081008091810081608093810080918000B3
:101420008160809380008091B10084608093B100DE
:101430008091B00081608093B00080917A008460D8
:1014400080937A0080917A00826080937A00809104
:101450007A00816080937A0080917A00806880931E
:101460007A001092C100E0912002F091210282E006
:101470008083E0911C02F0911D021082E0911E0217
:10148000F0911F028FEC808310922802E0912402D9
:10149000F091250286E08083E0912202F091230200
:1014A000808180618083E0912202F091230280811B
:1014B00088608083E0912202F0912302808180681D
:1014C0008083E0912202F091230280818F7D8083CE
:1014D00088E790E090937F0180937E0180E090E028
:1014E000A0E8BFE38093960190939701A0939801A1
:1014F000B093990180E090E0A0E0B0E48093920185
:1015000090939301A0939401B093950180E090E0B3
:10151000A0E4B0E480938E0190938F01A09390019A
:10152000B09391010E94E5020E94CD0289E280936E
:10153000BB028DEA92E09093BA028093B9020E94B6
:1015400063068CE390E00E9437038CE390E00E94F6
:10155000210380E395E79093770180937601909340
:1015600073018093720190936F0180936E011092CA
:101570007901109278011092750110927401109205
:101580007101109270018FB7F894C0907A01D090D9
:101590007B01E0907C01F0907D018FBF9E012F5F69
:1015A0003F4FAE014D5F5F4FBE016B5F7F4FCE017E
:1015B00007960E9423074F8158858091760190916C
:1015C00077014817590720F450937701409376012B
:1015D0002D813E8180917201909173012817390706
:1015E00020F430937301209372018B819C81609170
:1015F0006E0170916F018617970720F490936F0129
:1016000080936E016091780170917901641775077C
:1016100020F45093790140937801409174015091E6
:1016200075014217530720F430937501209374011C
:1016300020917001309171012817390720F490939F
:101640007101809370012FB7F89480917A01909185
:101650007B01A0917C01B0917D012FBF8C199D0968
:10166000AE09BF09813D9740A105B10508F496CFA9
:1016700090E080E00E94370390E080E00E94210328
:101680000E94E5020E94CD0200E010E09E012F5F63
:101690003F4FAE014D5F5F4FBE016B5F7F4FCE018D
:1016A00007960E942307C0907601D0907701F12C15
:1016B000E12C2F81388550E040E02C193D094E097E
:1016C0005F09AFEFB0E00E94620D20917801309188
:1016D000790150E040E02C193D094E095F090E9454
:1016E000430DCA01B9010E94DB0D4B015C018092E0
:1016F000960190929701A0929801B0929901C090A2
:101700007201D0907301F12CE12C2D813E8150E0CB
:1017100040E02C193D094E095F09AFEFB0E00E948F
:10172000620D209174013091750150E040E02C1958
:101730003D094E095F090E94430DCA01B9010E948B
:10174000DB0D6B017C01C0929201D0929301E0927B
:101750009401F092950140906E0150906F01712CB0
:10176000612C2B813C8150E040E024193509460969
:101770005709AFEFB0E00E94620D209170013091E7
:10178000710150E040E024193509460957090E94CB
:10179000430DCA01B9010E94DB0D2B013C014092AF
:1017A0008E0150928F01609290017092910120E021
:1017B00030E0A901C501B4010E949E0D87FF08C059
:1017C000109296011092970110929801109299012F
:1017D00020E030E04FE753E460919601709197016B
:1017E00080919801909199010E94630E181664F4FB
:1017F00080E090E0AFE7B3E4809396019093970187
:10180000A0939801B093990120E030E0A901C701AD
:10181000B6010E949E0D87FF08C01092920110929F
:101820009301109294011092950120E030E04FE76F
:1018300053E4609192017091930180919401909191
:1018400095010E94630E181664F480E090E0AFE703
:10185000B3E48093920190939301A0939401B09389
:10186000950120E030E0A901C301B2010E949E0D64
:1018700087FF08C010928E0110928F011092900184
:101880001092910120E030E04FE753E460918E0127
:1018900070918F0180919001909191010E94630E4F
:1018A000181664F480E090E0AFE7B3E480938E0113
:1018B00090938F01A0939001B09391018FB7F8940A
:1018C000C0907A01D0907B01E0907C01F0907D0186
:1018D0008FBFD0928D01C0928C010D2C000CEE08B0
:1018E000FF088091800190918101A0918201B091C7
:1018F0008301A7019601281B390B4A0B5B0BDA0108
:10190000C90185369105A105B10508F44BC080E1F8
:1019100092E00E94EC00181619060CF043C080E11A
:1019200092E00E94CA008F3FE9F583E490E00E94B4
:101930007B0160919201709193018091940190914B
:1019400095010E94A30D2B0160918E0170918F0172
:1019500080919001909191010E94A30D4B016091A3
:1019600096017091970180919801909199010E9440
:10197000A30DCB010E947B01C2010E947B01C40127
:101980000E947B01C0928001D0928101E09282018D
:10199000F0928301C0928401D0928501E092860189
:1019A000F09287018091880190918901A0918A012C
:1019B000B0918B01A7019601281B390B4A0B5B0BD9
:1019C000DA01C90185369105A105B10578F180E1FB
:1019D00092E00E94EC001816190644F580E192E0AE
:1019E0000E94CA008F3F11F587E490E00E947B01BE
:1019F000A0907E01B0907F018B2D9B2D990F990BAC
:101A00000E947B01C50199270E947B01C092880139
:101A1000D0928901E0928A01F0928B01C0928401F8
:101A2000D0928501E0928601F09287018091840135
:101A300090918501A0918601B0918701A70196013F
:101A4000281B390B4A0B5B0BDA01C901893E934015
:101A5000A105B10560F08EE490E00E947B01C09288
:101A60008401D0928501E0928601F09287010115F0
:101A7000110509F40BCE0E94F800882309F406CE64
:101A80000E94000003CE052E97FB1EF400940E94D6
:101A90005A0D57FD07D00E946D0D07FC03D04EF480
:101AA0000C945A0D50954095309521953F4F4F4FCE
:101AB0005F4F089590958095709561957F4F8F4FFA
:101AC0009F4F08950E948F0DA59F900DB49F900D7C
:101AD000A49F800D911D11240895A1E21A2EAA1B26
:101AE000BB1BFD010DC0AA1FBB1FEE1FFF1FA217CE
:101AF000B307E407F50720F0A21BB30BE40BF50BCB
:101B0000661F771F881F991F1A9469F76095709553
:101B1000809590959B01AC01BD01CF010895A29FD6
:101B2000B001B39FC001A39F700D811D1124911DB1
:101B3000B29F700D811D1124911D08950E94160EF3
:101B400008F481E008950E94AA0D6894B1110C94E4
:101B50005D0E08950E94420E88F09F5798F0B92FAD
:101B60009927B751B0F0E1F0660F771F881F991FD2
:101B70001AF0BA95C9F714C0B13091F00E945C0E0A
:101B8000B1E008950C945C0E672F782F8827B85F1A
:101B900039F0B93FCCF3869577956795B395D9F72A
:101BA0003EF490958095709561957F4F8F4F9F4F34
:101BB0000895E89409C097FB3EF490958095709540
:101BC00061957F4F8F4F9F4F9923A9F0F92F96E989
:101BD000BB279395F695879577956795B795F111FE
:101BE000F8CFFAF4BB0F11F460FF1BC06F5F7F4F9B
:101BF0008F4F9F4F16C0882311F096E911C07723AD
:101C000021F09EE8872F762F05C0662371F096E8B5
:101C1000862F70E060E02AF09A95660F771F881F84
:101C2000DAF7880F9695879597F90895990F000828
:101C3000550FAA0BE0E8FEEF16161706E807F9079E
:101C4000C0F012161306E407F50798F0621B730B39
:101C5000840B950B39F40A2661F0232B242B252BBA
:101C600021F408950A2609F4A140A6958FEF811D5D
:101C7000811D089557FD9058440F551F59F05F3F3F
:101C800071F04795880F97FB991F61F09F3F79F09E
:101C900087950895121613061406551FF2CF469520
:101CA000F1DF08C0161617061806991FF1CF8695A2
:101CB0007105610508940895E894BB276627772786
:101CC000CB0197F908950E94160E08F48FEF08953E
:101CD000EE0FFF1F0590F491E02D0994F894FFCFCB
:101CE000000000002E018E00BB008001EC00CA0045
:101CF000DE0000000000F105C40520069A05BD05C0
:041D0000AA059B0590
:107E0000112484B714BE81FFF0D085E080938100F7
:107E100082E08093C00088E18093C10086E0809377
:107E2000C20080E18093C4008EE0C9D0259A86E02C
:107E300020E33CEF91E0309385002093840096BBD3
:107E4000B09BFECF1D9AA8958150A9F7CC24DD24C4
:107E500088248394B5E0AB2EA1E19A2EF3E0BF2EE7
:107E6000A2D0813461F49FD0082FAFD0023811F036
:107E7000013811F484E001C083E08DD089C08234E0
:107E800011F484E103C0853419F485E0A6D080C0E4
:107E9000853579F488D0E82EFF2485D0082F10E0AE
:107EA000102F00270E291F29000F111F8ED06801E7
:107EB0006FC0863521F484E090D080E0DECF843638
:107EC00009F040C070D06FD0082F6DD080E0C81688
:107ED00080E7D80618F4F601B7BEE895C0E0D1E017
:107EE00062D089930C17E1F7F0E0CF16F0E7DF06D8
:107EF00018F0F601B7BEE89568D007B600FCFDCFD4
:107F0000A601A0E0B1E02C9130E011968C91119780
:107F100090E0982F8827822B932B1296FA010C0160
:107F200087BEE89511244E5F5F4FF1E0A038BF0790
:107F300051F7F601A7BEE89507B600FCFDCF97BE46
:107F4000E89526C08437B1F42ED02DD0F82E2BD052
:107F50003CD0F601EF2C8F010F5F1F4F84911BD097
:107F6000EA94F801C1F70894C11CD11CFA94CF0C13
:107F7000D11C0EC0853739F428D08EE10CD085E9AC
:107F80000AD08FE07ACF813511F488E018D01DD067
:107F900080E101D065CF982F8091C00085FFFCCF94
:107FA0009093C60008958091C00087FFFCCF809118
:107FB000C00084FD01C0A8958091C6000895E0E648
:107FC000F0E098E1908380830895EDDF803219F02E
:107FD00088E0F5DFFFCF84E1DECF1F93182FE3DFCA
:107FE0001150E9F7F2DF1F91089580E0E8DFEE27F6
:047FF000FF270994CA
:027FFE00040479
:00000001FF
